{
  "contractName": "Ecocompensation",
  "abi": [
    {
      "inputs": [],
      "stateMutability": "nonpayable",
      "type": "constructor"
    },
    {
      "anonymous": false,
      "inputs": [
        {
          "indexed": true,
          "internalType": "address",
          "name": "sender",
          "type": "address"
        },
        {
          "indexed": false,
          "internalType": "string",
          "name": "orderId",
          "type": "string"
        },
        {
          "indexed": false,
          "internalType": "uint256",
          "name": "tCO2",
          "type": "uint256"
        },
        {
          "indexed": false,
          "internalType": "uint256",
          "name": "euros",
          "type": "uint256"
        },
        {
          "indexed": false,
          "internalType": "uint256",
          "name": "timestamp",
          "type": "uint256"
        },
        {
          "indexed": false,
          "internalType": "string",
          "name": "status",
          "type": "string"
        },
        {
          "indexed": false,
          "internalType": "string",
          "name": "Action",
          "type": "string"
        }
      ],
      "name": "Compensated",
      "type": "event"
    },
    {
      "inputs": [
        {
          "internalType": "address",
          "name": "",
          "type": "address"
        }
      ],
      "name": "companyInfos",
      "outputs": [
        {
          "internalType": "string",
          "name": "commercialContact",
          "type": "string"
        },
        {
          "internalType": "string",
          "name": "companyName",
          "type": "string"
        },
        {
          "internalType": "string",
          "name": "countryAddress",
          "type": "string"
        },
        {
          "internalType": "string",
          "name": "commercialContactOwner",
          "type": "string"
        },
        {
          "internalType": "string",
          "name": "ownerCountry",
          "type": "string"
        },
        {
          "internalType": "string",
          "name": "billingName",
          "type": "string"
        },
        {
          "internalType": "string",
          "name": "iban",
          "type": "string"
        },
        {
          "internalType": "string",
          "name": "swiftcode",
          "type": "string"
        }
      ],
      "stateMutability": "view",
      "type": "function",
      "constant": true
    },
    {
      "inputs": [],
      "name": "owner",
      "outputs": [
        {
          "internalType": "address",
          "name": "",
          "type": "address"
        }
      ],
      "stateMutability": "view",
      "type": "function",
      "constant": true
    },
    {
      "inputs": [
        {
          "internalType": "string",
          "name": "",
          "type": "string"
        }
      ],
      "name": "tCO2compenseByOrderId",
      "outputs": [
        {
          "internalType": "uint256",
          "name": "",
          "type": "uint256"
        }
      ],
      "stateMutability": "view",
      "type": "function",
      "constant": true
    },
    {
      "inputs": [
        {
          "internalType": "uint256",
          "name": "",
          "type": "uint256"
        }
      ],
      "name": "transactions",
      "outputs": [
        {
          "internalType": "string",
          "name": "orderId",
          "type": "string"
        },
        {
          "internalType": "uint256",
          "name": "tCO2",
          "type": "uint256"
        },
        {
          "internalType": "uint256",
          "name": "euros",
          "type": "uint256"
        },
        {
          "internalType": "uint256",
          "name": "timestamp",
          "type": "uint256"
        },
        {
          "internalType": "address",
          "name": "sender",
          "type": "address"
        },
        {
          "internalType": "string",
          "name": "status",
          "type": "string"
        },
        {
          "internalType": "string",
          "name": "Action",
          "type": "string"
        }
      ],
      "stateMutability": "view",
      "type": "function",
      "constant": true
    },
    {
      "inputs": [
        {
          "internalType": "uint256",
          "name": "_tCO2",
          "type": "uint256"
        },
        {
          "internalType": "uint256",
          "name": "_euros",
          "type": "uint256"
        }
      ],
      "name": "compensate",
      "outputs": [],
      "stateMutability": "payable",
      "type": "function",
      "payable": true
    },
    {
      "inputs": [],
      "name": "getTransactionsCount",
      "outputs": [
        {
          "internalType": "uint256",
          "name": "",
          "type": "uint256"
        }
      ],
      "stateMutability": "view",
      "type": "function",
      "constant": true
    },
    {
      "inputs": [
        {
          "internalType": "uint256",
          "name": "index",
          "type": "uint256"
        }
      ],
      "name": "getTransaction",
      "outputs": [
        {
          "internalType": "string",
          "name": "orderId",
          "type": "string"
        },
        {
          "internalType": "uint256",
          "name": "tCO2",
          "type": "uint256"
        },
        {
          "internalType": "uint256",
          "name": "euros",
          "type": "uint256"
        },
        {
          "internalType": "uint256",
          "name": "timestamp",
          "type": "uint256"
        },
        {
          "internalType": "address",
          "name": "sender",
          "type": "address"
        },
        {
          "internalType": "string",
          "name": "status",
          "type": "string"
        },
        {
          "internalType": "string",
          "name": "Action",
          "type": "string"
        }
      ],
      "stateMutability": "view",
      "type": "function",
      "constant": true
    },
    {
      "inputs": [
        {
          "internalType": "address",
          "name": "_companyAddress",
          "type": "address"
        }
      ],
      "name": "getCompanyInformation",
      "outputs": [
        {
          "internalType": "string",
          "name": "",
          "type": "string"
        },
        {
          "internalType": "string",
          "name": "",
          "type": "string"
        },
        {
          "internalType": "string",
          "name": "",
          "type": "string"
        },
        {
          "internalType": "string",
          "name": "",
          "type": "string"
        },
        {
          "internalType": "string",
          "name": "",
          "type": "string"
        },
        {
          "internalType": "string",
          "name": "",
          "type": "string"
        },
        {
          "internalType": "string",
          "name": "",
          "type": "string"
        },
        {
          "internalType": "string",
          "name": "",
          "type": "string"
        }
      ],
      "stateMutability": "view",
      "type": "function",
      "constant": true
    },
    {
      "inputs": [
        {
          "internalType": "string",
          "name": "_orderId",
          "type": "string"
        },
        {
          "internalType": "uint256",
          "name": "_additionalTco2",
          "type": "uint256"
        },
        {
          "internalType": "string",
          "name": "_newAction",
          "type": "string"
        }
      ],
      "name": "addToTco2",
      "outputs": [],
      "stateMutability": "nonpayable",
      "type": "function"
    },
    {
      "inputs": [
        {
          "internalType": "string",
          "name": "_orderId",
          "type": "string"
        }
      ],
      "name": "getTco2CompenseByOrderId",
      "outputs": [
        {
          "internalType": "uint256",
          "name": "",
          "type": "uint256"
        }
      ],
      "stateMutability": "view",
      "type": "function",
      "constant": true
    },
    {
      "inputs": [],
      "name": "getSenderAddress",
      "outputs": [
        {
          "internalType": "address",
          "name": "",
          "type": "address"
        }
      ],
      "stateMutability": "view",
      "type": "function",
      "constant": true
    },
    {
      "inputs": [],
      "name": "getRegisteredAddresses",
      "outputs": [
        {
          "internalType": "address[]",
          "name": "",
          "type": "address[]"
        }
      ],
      "stateMutability": "view",
      "type": "function",
      "constant": true
    }
  ],
  "bytecode": "0x60806040523480156200001157600080fd5b50336000806101000a81548173ffffffffffffffffffffffffffffffffffffffff021916908373ffffffffffffffffffffffffffffffffffffffff1602179055506040518061010001604052806040518060400160405280600d81526020017f486f6d65722053696d70736f6e0000000000000000000000000000000000000081525081526020016040518060400160405280600581526020017f446f6e757400000000000000000000000000000000000000000000000000000081525081526020016040518060400160405280601f81526020017f392072756520646573204d6f756c696e732c2050617269732f4672616e63650081525081526020016040518060400160405280600b81526020017f4d617474656f204372757a0000000000000000000000000000000000000000008152508152602001604051806060016040528060218152602001620031686021913981526020016040518060400160405280600d81526020017f4d617267652053696d70736f6e0000000000000000000000000000000000000081525081526020016040518060400160405280600f81526020017f465237363239333438383131393333000000000000000000000000000000000081525081526020016040518060400160405280600b81526020017f454241544652505045423100000000000000000000000000000000000000000081525081525060026000732399c5e218724954926b593a3dd164974197aa6773ffffffffffffffffffffffffffffffffffffffff1673ffffffffffffffffffffffffffffffffffffffff16815260200190815260200160002060008201518160000190805190602001906200028992919062000680565b506020820151816001019080519060200190620002a892919062000680565b506040820151816002019080519060200190620002c792919062000680565b506060820151816003019080519060200190620002e692919062000680565b5060808201518160040190805190602001906200030592919062000680565b5060a08201518160050190805190602001906200032492919062000680565b5060c08201518160060190805190602001906200034392919062000680565b5060e08201518160070190805190602001906200036292919062000680565b509050506040518061010001604052806040518060400160405280600e81526020017f4d617468696c6465204d696c6b6100000000000000000000000000000000000081525081526020016040518060400160405280600681526020017f436f6f6b6965000000000000000000000000000000000000000000000000000081525081526020016040518060400160405280601d81526020017f3320766961204761726962616c64692047656e6f76612f4974616c696500000081525081526020016040518060400160405280600b81526020017f4d617474656f204372757a0000000000000000000000000000000000000000008152508152602001604051806060016040528060218152602001620031686021913981526020016040518060400160405280600b81526020017f416c61696e204d696c6b6100000000000000000000000000000000000000000081525081526020016040518060400160405280600f81526020017f465237363232393939313933393438000000000000000000000000000000000081525081526020016040518060400160405280600b81526020017f45424150465250505053410000000000000000000000000000000000000000008152508152506002600073a3bf1810dad6e40a9c4649e908165b011ba7e6ee73ffffffffffffffffffffffffffffffffffffffff1673ffffffffffffffffffffffffffffffffffffffff16815260200190815260200160002060008201518160000190805190602001906200059d92919062000680565b506020820151816001019080519060200190620005bc92919062000680565b506040820151816002019080519060200190620005db92919062000680565b506060820151816003019080519060200190620005fa92919062000680565b5060808201518160040190805190602001906200061992919062000680565b5060a08201518160050190805190602001906200063892919062000680565b5060c08201518160060190805190602001906200065792919062000680565b5060e08201518160070190805190602001906200067692919062000680565b5090505062000795565b8280546200068e9062000730565b90600052602060002090601f016020900481019282620006b25760008555620006fe565b82601f10620006cd57805160ff1916838001178555620006fe565b82800160010185558215620006fe579182015b82811115620006fd578251825591602001919060010190620006e0565b5b5090506200070d919062000711565b5090565b5b808211156200072c57600081600090555060010162000712565b5090565b600060028204905060018216806200074957607f821691505b6020821081141562000760576200075f62000766565b5b50919050565b7f4e487b7100000000000000000000000000000000000000000000000000000000600052602260045260246000fd5b6129c380620007a56000396000f3fe6080604052600436106100a75760003560e01c80638da5cb5b116100645780638da5cb5b146101f157806390f86bf61461021c57806390faf2ec146102605780639ace38c214610289578063d59a7a8e146102cc578063e49adb54146102e8576100a7565b8063227ef061146100ac57806333ea3dc8146100d757806342948e181461011a5780634ab7f87614610145578063578cb8f91461018957806361a6afb4146101b4575b600080fd5b3480156100b857600080fd5b506100c1610325565b6040516100ce919061233a565b60405180910390f35b3480156100e357600080fd5b506100fe60048036038101906100f99190611e09565b6104a9565b6040516101119796959493929190612412565b60405180910390f35b34801561012657600080fd5b5061012f610745565b60405161013c919061231f565b60405180910390f35b34801561015157600080fd5b5061016c60048036038101906101679190611d20565b61074d565b60405161018098979695949392919061235c565b60405180910390f35b34801561019557600080fd5b5061019e610bd5565b6040516101ab91906125a8565b60405180910390f35b3480156101c057600080fd5b506101db60048036038101906101d69190611d49565b610be2565b6040516101e891906125a8565b60405180910390f35b3480156101fd57600080fd5b50610206610c10565b604051610213919061231f565b60405180910390f35b34801561022857600080fd5b50610243600480360381019061023e9190611d20565b610c34565b60405161025798979695949392919061235c565b60405180910390f35b34801561026c57600080fd5b5061028760048036038101906102829190611d8a565b61111f565b005b34801561029557600080fd5b506102b060048036038101906102ab9190611e09565b611553565b6040516102c39796959493929190612412565b60405180910390f35b6102e660048036038101906102e19190611e32565b61175d565b005b3480156102f457600080fd5b5061030f600480360381019061030a9190611d49565b611a06565b60405161031c91906125a8565b60405180910390f35b6060600060018054905067ffffffffffffffff81111561036e577f4e487b7100000000000000000000000000000000000000000000000000000000600052604160045260246000fd5b60405190808252806020026020018201604052801561039c5781602001602082028036833780820191505090505b50905060005b6001805490508110156104a157600181815481106103e9577f4e487b7100000000000000000000000000000000000000000000000000000000600052603260045260246000fd5b906000526020600020906007020160040160009054906101000a900473ffffffffffffffffffffffffffffffffffffffff16828281518110610454577f4e487b7100000000000000000000000000000000000000000000000000000000600052603260045260246000fd5b602002602001019073ffffffffffffffffffffffffffffffffffffffff16908173ffffffffffffffffffffffffffffffffffffffff168152505080806104999061279f565b9150506103a2565b508091505090565b606060008060008060608060018054905088106104fb576040517f08c379a00000000000000000000000000000000000000000000000000000000081526004016104f290612528565b60405180910390fd5b600060018981548110610537577f4e487b7100000000000000000000000000000000000000000000000000000000600052603260045260246000fd5b90600052602060002090600702019050806000018160010154826002015483600301548460040160009054906101000a900473ffffffffffffffffffffffffffffffffffffffff1685600501866006018680546105939061276d565b80601f01602080910402602001604051908101604052809291908181526020018280546105bf9061276d565b801561060c5780601f106105e15761010080835404028352916020019161060c565b820191906000526020600020905b8154815290600101906020018083116105ef57829003601f168201915b5050505050965081805461061f9061276d565b80601f016020809104026020016040519081016040528092919081815260200182805461064b9061276d565b80156106985780601f1061066d57610100808354040283529160200191610698565b820191906000526020600020905b81548152906001019060200180831161067b57829003601f168201915b505050505091508080546106ab9061276d565b80601f01602080910402602001604051908101604052809291908181526020018280546106d79061276d565b80156107245780601f106106f957610100808354040283529160200191610724565b820191906000526020600020905b81548152906001019060200180831161070757829003601f168201915b50505050509050975097509750975097509750975050919395979092949650565b600033905090565b60026020528060005260406000206000915090508060000180546107709061276d565b80601f016020809104026020016040519081016040528092919081815260200182805461079c9061276d565b80156107e95780601f106107be576101008083540402835291602001916107e9565b820191906000526020600020905b8154815290600101906020018083116107cc57829003601f168201915b5050505050908060010180546107fe9061276d565b80601f016020809104026020016040519081016040528092919081815260200182805461082a9061276d565b80156108775780601f1061084c57610100808354040283529160200191610877565b820191906000526020600020905b81548152906001019060200180831161085a57829003601f168201915b50505050509080600201805461088c9061276d565b80601f01602080910402602001604051908101604052809291908181526020018280546108b89061276d565b80156109055780601f106108da57610100808354040283529160200191610905565b820191906000526020600020905b8154815290600101906020018083116108e857829003601f168201915b50505050509080600301805461091a9061276d565b80601f01602080910402602001604051908101604052809291908181526020018280546109469061276d565b80156109935780601f1061096857610100808354040283529160200191610993565b820191906000526020600020905b81548152906001019060200180831161097657829003601f168201915b5050505050908060040180546109a89061276d565b80601f01602080910402602001604051908101604052809291908181526020018280546109d49061276d565b8015610a215780601f106109f657610100808354040283529160200191610a21565b820191906000526020600020905b815481529060010190602001808311610a0457829003601f168201915b505050505090806005018054610a369061276d565b80601f0160208091040260200160405190810160405280929190818152602001828054610a629061276d565b8015610aaf5780601f10610a8457610100808354040283529160200191610aaf565b820191906000526020600020905b815481529060010190602001808311610a9257829003601f168201915b505050505090806006018054610ac49061276d565b80601f0160208091040260200160405190810160405280929190818152602001828054610af09061276d565b8015610b3d5780601f10610b1257610100808354040283529160200191610b3d565b820191906000526020600020905b815481529060010190602001808311610b2057829003601f168201915b505050505090806007018054610b529061276d565b80601f0160208091040260200160405190810160405280929190818152602001828054610b7e9061276d565b8015610bcb5780601f10610ba057610100808354040283529160200191610bcb565b820191906000526020600020905b815481529060010190602001808311610bae57829003601f168201915b5050505050905088565b6000600180549050905090565b6003818051602081018201805184825260208301602085012081835280955050505050506000915090505481565b60008054906101000a900473ffffffffffffffffffffffffffffffffffffffff1681565b6060806060806060806060806000600260008b73ffffffffffffffffffffffffffffffffffffffff1673ffffffffffffffffffffffffffffffffffffffff16815260200190815260200160002090508060000181600101826002018360030184600401856005018660060187600701878054610caf9061276d565b80601f0160208091040260200160405190810160405280929190818152602001828054610cdb9061276d565b8015610d285780601f10610cfd57610100808354040283529160200191610d28565b820191906000526020600020905b815481529060010190602001808311610d0b57829003601f168201915b50505050509750868054610d3b9061276d565b80601f0160208091040260200160405190810160405280929190818152602001828054610d679061276d565b8015610db45780601f10610d8957610100808354040283529160200191610db4565b820191906000526020600020905b815481529060010190602001808311610d9757829003601f168201915b50505050509650858054610dc79061276d565b80601f0160208091040260200160405190810160405280929190818152602001828054610df39061276d565b8015610e405780601f10610e1557610100808354040283529160200191610e40565b820191906000526020600020905b815481529060010190602001808311610e2357829003601f168201915b50505050509550848054610e539061276d565b80601f0160208091040260200160405190810160405280929190818152602001828054610e7f9061276d565b8015610ecc5780601f10610ea157610100808354040283529160200191610ecc565b820191906000526020600020905b815481529060010190602001808311610eaf57829003601f168201915b50505050509450838054610edf9061276d565b80601f0160208091040260200160405190810160405280929190818152602001828054610f0b9061276d565b8015610f585780601f10610f2d57610100808354040283529160200191610f58565b820191906000526020600020905b815481529060010190602001808311610f3b57829003601f168201915b50505050509350828054610f6b9061276d565b80601f0160208091040260200160405190810160405280929190818152602001828054610f979061276d565b8015610fe45780601f10610fb957610100808354040283529160200191610fe4565b820191906000526020600020905b815481529060010190602001808311610fc757829003601f168201915b50505050509250818054610ff79061276d565b80601f01602080910402602001604051908101604052809291908181526020018280546110239061276d565b80156110705780601f1061104557610100808354040283529160200191611070565b820191906000526020600020905b81548152906001019060200180831161105357829003601f168201915b505050505091508080546110839061276d565b80601f01602080910402602001604051908101604052809291908181526020018280546110af9061276d565b80156110fc5780601f106110d1576101008083540402835291602001916110fc565b820191906000526020600020905b8154815290600101906020018083116110df57829003601f168201915b505050505090509850985098509850985098509850985050919395975091939597565b60008054906101000a900473ffffffffffffffffffffffffffffffffffffffff1673ffffffffffffffffffffffffffffffffffffffff163373ffffffffffffffffffffffffffffffffffffffff16146111ad576040517f08c379a00000000000000000000000000000000000000000000000000000000081526004016111a490612508565b60405180910390fd5b6000805b60018054905081101561150c57846040516020016111cf9190612274565b604051602081830303815290604052805190602001206001828154811061121f577f4e487b7100000000000000000000000000000000000000000000000000000000600052603260045260246000fd5b9060005260206000209060070201600001604051602001611240919061228b565b6040516020818303038152906040528051906020012014156114f95760008460038760405161126f9190612274565b9081526020016040518091039020546112889190612699565b9050600182815481106112c4577f4e487b7100000000000000000000000000000000000000000000000000000000600052603260045260246000fd5b906000526020600020906007020160010154811115611318576040517f08c379a000000000000000000000000000000000000000000000000000000000815260040161130f90612568565b60405180910390fd5b806003876040516113299190612274565b90815260200160405180910390208190555060018281548110611375577f4e487b7100000000000000000000000000000000000000000000000000000000600052603260045260246000fd5b9060005260206000209060070201600601846040516020016113989291906122a2565b604051602081830303815290604052600183815481106113e1577f4e487b7100000000000000000000000000000000000000000000000000000000600052603260045260246000fd5b90600052602060002090600702016006019080519060200190611405929190611beb565b5060018281548110611440577f4e487b7100000000000000000000000000000000000000000000000000000000600052603260045260246000fd5b9060005260206000209060070201600101548114156114ef576040518060400160405280600881526020017f436f6d706c657465000000000000000000000000000000000000000000000000815250600183815481106114c9577f4e487b7100000000000000000000000000000000000000000000000000000000600052603260045260246000fd5b906000526020600020906007020160050190805190602001906114ed929190611beb565b505b600192505061150c565b80806115049061279f565b9150506111b1565b508061154d576040517f08c379a000000000000000000000000000000000000000000000000000000000815260040161154490612548565b60405180910390fd5b50505050565b6001818154811061156357600080fd5b90600052602060002090600702016000915090508060000180546115869061276d565b80601f01602080910402602001604051908101604052809291908181526020018280546115b29061276d565b80156115ff5780601f106115d4576101008083540402835291602001916115ff565b820191906000526020600020905b8154815290600101906020018083116115e257829003601f168201915b5050505050908060010154908060020154908060030154908060040160009054906101000a900473ffffffffffffffffffffffffffffffffffffffff169080600501805461164c9061276d565b80601f01602080910402602001604051908101604052809291908181526020018280546116789061276d565b80156116c55780601f1061169a576101008083540402835291602001916116c5565b820191906000526020600020905b8154815290600101906020018083116116a857829003601f168201915b5050505050908060060180546116da9061276d565b80601f01602080910402602001604051908101604052809291908181526020018280546117069061276d565b80156117535780601f1061172857610100808354040283529160200191611753565b820191906000526020600020905b81548152906001019060200180831161173657829003601f168201915b5050505050905087565b600081116117a0576040517f08c379a000000000000000000000000000000000000000000000000000000000815260040161179790612588565b60405180910390fd5b60006117aa611a2e565b905060006003826040516117be9190612274565b90815260200160405180910390208190555060016040518060e001604052808381526020018581526020018481526020014281526020013373ffffffffffffffffffffffffffffffffffffffff1681526020016040518060400160405280600781526020017f4e6f757665617500000000000000000000000000000000000000000000000000815250815260200160405180602001604052806000815250815250908060018154018082558091505060019003906000526020600020906007020160009091909190915060008201518160000190805190602001906118a4929190611beb565b5060208201518160010155604082015181600201556060820151816003015560808201518160040160006101000a81548173ffffffffffffffffffffffffffffffffffffffff021916908373ffffffffffffffffffffffffffffffffffffffff16021790555060a0820151816005019080519060200190611926929190611beb565b5060c0820151816006019080519060200190611943929190611beb565b50505060008054906101000a900473ffffffffffffffffffffffffffffffffffffffff1673ffffffffffffffffffffffffffffffffffffffff166108fc349081150290604051600060405180830381858888f193505050501580156119ac573d6000803e3d6000fd5b503373ffffffffffffffffffffffffffffffffffffffff167f1fdfb900f53741dcce2207738483692323dca6a8d69b7db6766c7ecd94399eba828585426040516119f99493929190612496565b60405180910390a2505050565b6000600382604051611a189190612274565b9081526020016040518091039020549050919050565b606060006040518060600160405280603e8152602001612950603e913990506000600667ffffffffffffffff811115611a90577f4e487b7100000000000000000000000000000000000000000000000000000000600052604160045260246000fd5b6040519080825280601f01601f191660200182016040528015611ac25781602001600182028036833780820191505090505b50905060008251905060005b6006811015611be1576000423360018054905084604051602001611af594939291906122d1565b6040516020818303038152906040528051906020012060001c905060008382611b1e9190612816565b9050858181518110611b59577f4e487b7100000000000000000000000000000000000000000000000000000000600052603260045260246000fd5b602001015160f81c60f81b858481518110611b9d577f4e487b7100000000000000000000000000000000000000000000000000000000600052603260045260246000fd5b60200101907effffffffffffffffffffffffffffffffffffffffffffffffffffffffffffff1916908160001a90535050508080611bd99061279f565b915050611ace565b5081935050505090565b828054611bf79061276d565b90600052602060002090601f016020900481019282611c195760008555611c60565b82601f10611c3257805160ff1916838001178555611c60565b82800160010185558215611c60579182015b82811115611c5f578251825591602001919060010190611c44565b5b509050611c6d9190611c71565b5090565b5b80821115611c8a576000816000905550600101611c72565b5090565b6000611ca1611c9c846125f4565b6125c3565b905082815260208101848484011115611cb957600080fd5b611cc484828561272b565b509392505050565b600081359050611cdb81612921565b92915050565b600082601f830112611cf257600080fd5b8135611d02848260208601611c8e565b91505092915050565b600081359050611d1a81612938565b92915050565b600060208284031215611d3257600080fd5b6000611d4084828501611ccc565b91505092915050565b600060208284031215611d5b57600080fd5b600082013567ffffffffffffffff811115611d7557600080fd5b611d8184828501611ce1565b91505092915050565b600080600060608486031215611d9f57600080fd5b600084013567ffffffffffffffff811115611db957600080fd5b611dc586828701611ce1565b9350506020611dd686828701611d0b565b925050604084013567ffffffffffffffff811115611df357600080fd5b611dff86828701611ce1565b9150509250925092565b600060208284031215611e1b57600080fd5b6000611e2984828501611d0b565b91505092915050565b60008060408385031215611e4557600080fd5b6000611e5385828601611d0b565b9250506020611e6485828601611d0b565b9150509250929050565b6000611e7a8383611e86565b60208301905092915050565b611e8f816126ef565b82525050565b611e9e816126ef565b82525050565b611eb5611eb0826126ef565b6127e8565b82525050565b6000611ec682612649565b611ed0818561266c565b9350611edb83612624565b8060005b83811015611f0c578151611ef38882611e6e565b9750611efe8361265f565b925050600181019050611edf565b5085935050505092915050565b6000611f2482612654565b611f2e818561267d565b9350611f3e81856020860161273a565b611f4781612903565b840191505092915050565b6000611f5d82612654565b611f67818561268e565b9350611f7781856020860161273a565b80840191505092915050565b60008154611f908161276d565b611f9a818661268e565b94506001821660008114611fb55760018114611fc657611ff9565b60ff19831686528186019350611ff9565b611fcf85612634565b60005b83811015611ff157815481890152600182019150602081019050611fd2565b838801955050505b50505092915050565b600061200f60258361267d565b91507f4f6e6c7920746865206f776e65722063616e2063616c6c20746869732066756e60008301527f6374696f6e0000000000000000000000000000000000000000000000000000006020830152604082019050919050565b6000612075601f8361267d565b91507f5472616e73616374696f6e20696e646578206f7574206f6620626f756e6473006000830152602082019050919050565b60006120b560038361268e565b91507f207c2000000000000000000000000000000000000000000000000000000000006000830152600382019050919050565b60006120f560118361267d565b91507f4f726465724944206e6f7420666f756e640000000000000000000000000000006000830152602082019050919050565b600061213560008361267d565b9150600082019050919050565b600061214f60078361267d565b91507f4e6f7576656175000000000000000000000000000000000000000000000000006000830152602082019050919050565b600061218f60348361267d565b91507f546f74616c20636f6d70656e73617465642074434f322065786365656465642060008301527f666f722074686973207472616e73616374696f6e0000000000000000000000006020830152604082019050919050565b60006121f560268361267d565b91507f416d6f756e7420696e206575726f73206d75737420626520677265617465722060008301527f7468616e203000000000000000000000000000000000000000000000000000006020830152604082019050919050565b61225781612721565b82525050565b61226e61226982612721565b61280c565b82525050565b60006122808284611f52565b915081905092915050565b60006122978284611f83565b915081905092915050565b60006122ae8285611f83565b91506122b9826120a8565b91506122c58284611f52565b91508190509392505050565b60006122dd828761225d565b6020820191506122ed8286611ea4565b6014820191506122fd828561225d565b60208201915061230d828461225d565b60208201915081905095945050505050565b60006020820190506123346000830184611e95565b92915050565b600060208201905081810360008301526123548184611ebb565b905092915050565b6000610100820190508181036000830152612377818b611f19565b9050818103602083015261238b818a611f19565b9050818103604083015261239f8189611f19565b905081810360608301526123b38188611f19565b905081810360808301526123c78187611f19565b905081810360a08301526123db8186611f19565b905081810360c08301526123ef8185611f19565b905081810360e08301526124038184611f19565b90509998505050505050505050565b600060e082019050818103600083015261242c818a611f19565b905061243b602083018961224e565b612448604083018861224e565b612455606083018761224e565b6124626080830186611e95565b81810360a08301526124748185611f19565b905081810360c08301526124888184611f19565b905098975050505050505050565b600060c08201905081810360008301526124b08187611f19565b90506124bf602083018661224e565b6124cc604083018561224e565b6124d9606083018461224e565b81810360808301526124ea81612142565b905081810360a08301526124fd81612128565b905095945050505050565b6000602082019050818103600083015261252181612002565b9050919050565b6000602082019050818103600083015261254181612068565b9050919050565b60006020820190508181036000830152612561816120e8565b9050919050565b6000602082019050818103600083015261258181612182565b9050919050565b600060208201905081810360008301526125a1816121e8565b9050919050565b60006020820190506125bd600083018461224e565b92915050565b6000604051905081810181811067ffffffffffffffff821117156125ea576125e96128d4565b5b8060405250919050565b600067ffffffffffffffff82111561260f5761260e6128d4565b5b601f19601f8301169050602081019050919050565b6000819050602082019050919050565b60008190508160005260206000209050919050565b600081519050919050565b600081519050919050565b6000602082019050919050565b600082825260208201905092915050565b600082825260208201905092915050565b600081905092915050565b60006126a482612721565b91506126af83612721565b9250827fffffffffffffffffffffffffffffffffffffffffffffffffffffffffffffffff038211156126e4576126e3612847565b5b828201905092915050565b60006126fa82612701565b9050919050565b600073ffffffffffffffffffffffffffffffffffffffff82169050919050565b6000819050919050565b82818337600083830152505050565b60005b8381101561275857808201518184015260208101905061273d565b83811115612767576000848401525b50505050565b6000600282049050600182168061278557607f821691505b60208210811415612799576127986128a5565b5b50919050565b60006127aa82612721565b91507fffffffffffffffffffffffffffffffffffffffffffffffffffffffffffffffff8214156127dd576127dc612847565b5b600182019050919050565b60006127f3826127fa565b9050919050565b600061280582612914565b9050919050565b6000819050919050565b600061282182612721565b915061282c83612721565b92508261283c5761283b612876565b5b828206905092915050565b7f4e487b7100000000000000000000000000000000000000000000000000000000600052601160045260246000fd5b7f4e487b7100000000000000000000000000000000000000000000000000000000600052601260045260246000fd5b7f4e487b7100000000000000000000000000000000000000000000000000000000600052602260045260246000fd5b7f4e487b7100000000000000000000000000000000000000000000000000000000600052604160045260246000fd5b6000601f19601f8301169050919050565b60008160601b9050919050565b61292a816126ef565b811461293557600080fd5b50565b61294181612721565b811461294c57600080fd5b5056fe6162636465666768696a6b6c6d6e6f707172737475767778797a4142434445464748494a4b4c4d4e4f505152535455565758595a30313233343536373839a26469706673582212200aafae5afc324c133b7639a2d6c6282b4e228c2c3a1d5d7e0fc9eaf2513fe04764736f6c6343000800003336312072756573206465732041726368697665732050617269732f4672616e6365",
  "immutableReferences": {},
  "source": "// SPDX-License-Identifier: MIT\r\npragma solidity ^0.8.0;\r\n\r\ncontract Ecocompensation {\r\n    address public owner;\r\n\r\n    struct Transaction {\r\n        string orderId;\r\n        uint tCO2;\r\n        uint euros;\r\n        uint timestamp;\r\n        address sender;\r\n        string status;\r\n        string Action; // Nouvelle variable pour l'action\r\n    }\r\n\r\n    struct CompanyInfo {\r\n        string commercialContact;\r\n        string companyName;\r\n        string countryAddress;\r\n        string commercialContactOwner;\r\n        string ownerCountry;\r\n        string billingName;\r\n        string iban;\r\n        string swiftcode;\r\n    }\r\n\r\n    Transaction[] public transactions;\r\n    mapping(address => CompanyInfo) public companyInfos;\r\n    mapping(string => uint) public tCO2compenseByOrderId;\r\n\r\n    event Compensated(address indexed sender, string orderId, uint tCO2, uint euros, uint timestamp, string status, string Action);\r\n\r\n    constructor() {\r\n        owner = msg.sender;\r\n        companyInfos[0x2399c5E218724954926B593A3dd164974197AA67] = CompanyInfo(\"Homer Simpson\", \"Donut\", \"9 rue des Moulins, Paris/France\", \"Matteo Cruz\", \"61 rues des Archives Paris/France\", \"Marge Simpson\", \"FR7629348811933\", \"EBATFRPPEB1\");\r\n        companyInfos[0xA3bf1810DAd6E40A9C4649E908165B011Ba7E6eE] = CompanyInfo(\"Mathilde Milka\", \"Cookie\", \"3 via Garibaldi Genova/Italie\", \"Matteo Cruz\", \"61 rues des Archives Paris/France\", \"Alain Milka\", \"FR7622999193948\", \"EBAPFRPPPSA\");\r\n    }\r\n\r\n    modifier onlyOwner() {\r\n        require(msg.sender == owner, \"Only the owner can call this function\");\r\n        _;\r\n    }\r\n\r\n    function generateOrderId() private view returns (string memory) {\r\n    bytes memory charset = \"abcdefghijklmnopqrstuvwxyzABCDEFGHIJKLMNOPQRSTUVWXYZ0123456789\";\r\n    bytes memory result = new bytes(6);\r\n    uint256 charSetLength = charset.length;\r\n\r\n    for (uint256 i = 0; i < 6; i++) {\r\n        uint256 random = uint256(keccak256(abi.encodePacked(block.timestamp, msg.sender, transactions.length, i)));\r\n        uint256 index = random % charSetLength;\r\n        result[i] = charset[index];\r\n    }\r\n\r\n    return string(result);\r\n}\r\n\r\n\r\n    function compensate(uint _tCO2, uint _euros) public payable {\r\n        require(_euros > 0, \"Amount in euros must be greater than 0\");\r\n        string memory orderId = generateOrderId();\r\n        tCO2compenseByOrderId[orderId] = 0;\r\n        transactions.push(Transaction(orderId, _tCO2, _euros, block.timestamp, msg.sender, \"Nouveau\", \"\"));\r\n        payable(owner).transfer(msg.value);\r\n        emit Compensated(msg.sender, orderId, _tCO2, _euros, block.timestamp, \"Nouveau\", \"\");\r\n    }\r\n\r\n    function getTransactionsCount() public view returns (uint) {\r\n        return transactions.length;\r\n    }\r\n\r\n    function getTransaction(uint index) public view returns (string memory orderId, uint tCO2, uint euros, uint timestamp, address sender, string memory status, string memory Action) {\r\n        require(index < transactions.length, \"Transaction index out of bounds\");\r\n        Transaction storage transaction = transactions[index];\r\n        return (transaction.orderId, transaction.tCO2, transaction.euros, transaction.timestamp, transaction.sender, transaction.status, transaction.Action);\r\n    }\r\n\r\n    function getCompanyInformation(address _companyAddress) public view returns (string memory, string memory, string memory, string memory, string memory, string memory, string memory, string memory) {\r\n        CompanyInfo storage companyInfo = companyInfos[_companyAddress];\r\n        return (companyInfo.commercialContact, companyInfo.companyName, companyInfo.countryAddress, companyInfo.commercialContactOwner, companyInfo.ownerCountry, companyInfo.billingName, companyInfo.iban, companyInfo.swiftcode);\r\n    }\r\n\r\n    function addToTco2(string memory _orderId, uint _additionalTco2, string memory _newAction) public onlyOwner {\r\n        bool found = false;\r\n        for (uint i = 0; i < transactions.length; i++) {\r\n            if (keccak256(abi.encodePacked(transactions[i].orderId)) == keccak256(abi.encodePacked(_orderId))) {\r\n                uint totalTCO2 = tCO2compenseByOrderId[_orderId] + _additionalTco2;\r\n                require(totalTCO2 <= transactions[i].tCO2, \"Total compensated tCO2 exceeded for this transaction\");\r\n                tCO2compenseByOrderId[_orderId] = totalTCO2;\r\n                transactions[i].Action = string(abi.encodePacked(transactions[i].Action, \" | \", _newAction));\r\n                if (totalTCO2 == transactions[i].tCO2) {\r\n                    transactions[i].status = \"Complete\";\r\n                }\r\n                found = true;\r\n                break;\r\n            }\r\n        }\r\n        require(found, \"OrderID not found\");\r\n    }\r\n\r\n    function getTco2CompenseByOrderId(string memory _orderId) public view returns (uint) {\r\n        return tCO2compenseByOrderId[_orderId];\r\n    }\r\n\r\n    function getSenderAddress() public view returns (address) {\r\n        return msg.sender;\r\n    }\r\n\r\n    function getRegisteredAddresses() public view returns (address[] memory) {\r\n        address[] memory addresses = new address[](transactions.length);\r\n        for (uint i = 0; i < transactions.length; i++) {\r\n            addresses[i] = transactions[i].sender;\r\n        }\r\n        return addresses;\r\n    }\r\n}\r\n",
  "sourcePath": "C:\\Users\\matte\\OneDrive\\Bureau\\OrangeC02\\contracts\\Ecocompensation.sol",
  "compiler": {
    "name": "solc",
    "version": "0.8.0+commit.c7dfd78e.Emscripten.clang"
  },
  "schemaVersion": "3.4.16",
  "updatedAt": "2023-10-13T13:09:38.998Z",
  "networkType": "ethereum",
  "devdoc": {
    "kind": "dev",
    "methods": {},
    "version": 1
  },
  "userdoc": {
    "kind": "user",
    "methods": {},
    "version": 1
  }
}